:020000020000FC
:0200000028C016
:100050005FC000E001B9009502B90FEF04B9009547
:1000600005B903E007B9009508B902E00AB900959F
:100070000BB905B70F7E05BF04E00EBF0FEF0DBF34
:1000800000E600937C0001E000937E0000E0009316
:10009000C50003E30093C40000E00093C00008E93A
:1000A0000093C10006E00093C200789403EC009333
:1000B0007A0000917A0006FDFCCF00917900009350
:1000C000000136EE00910001039F88941794079475
:1000D0008894179407948894179407948894179495
:1000E0000794889417940794889417940794889495
:1000F0001794079488941794079400920101009133
:10010000C00005FFFCCF309101013093C600CECF77
:100110000F930FB70F930091C60005B90F910FBF52
:040120000F9118958E
:00000001FF
